{
  "contractName": "SocialNetwork",
  "abi": [
    {
      "constant": true,
      "inputs": [],
      "name": "name",
      "outputs": [
        {
          "name": "",
          "type": "string"
        }
      ],
      "payable": false,
      "stateMutability": "view",
      "type": "function"
    },
    {
      "constant": true,
      "inputs": [
        {
          "name": "",
          "type": "uint256"
        }
      ],
      "name": "posts",
      "outputs": [
        {
          "name": "id",
          "type": "uint256"
        },
        {
          "name": "content",
          "type": "string"
        },
        {
          "name": "choice_1",
          "type": "string"
        },
        {
          "name": "choice_2",
          "type": "string"
        },
        {
          "name": "choice_3",
          "type": "string"
        },
        {
          "name": "choice_4",
          "type": "string"
        },
        {
          "name": "choice_5",
          "type": "string"
        },
        {
          "name": "teacher",
          "type": "address"
        },
        {
          "name": "checks",
          "type": "bool"
        }
      ],
      "payable": false,
      "stateMutability": "view",
      "type": "function"
    },
    {
      "constant": true,
      "inputs": [
        {
          "name": "",
          "type": "uint256"
        }
      ],
      "name": "extras",
      "outputs": [
        {
          "name": "id1",
          "type": "uint256"
        },
        {
          "name": "choice_6",
          "type": "string"
        },
        {
          "name": "choice_7",
          "type": "string"
        },
        {
          "name": "choice_8",
          "type": "string"
        },
        {
          "name": "choice_9",
          "type": "string"
        },
        {
          "name": "choice_10",
          "type": "string"
        },
        {
          "name": "teacher",
          "type": "address"
        }
      ],
      "payable": false,
      "stateMutability": "view",
      "type": "function"
    },
    {
      "constant": true,
      "inputs": [],
      "name": "content",
      "outputs": [
        {
          "name": "",
          "type": "string"
        }
      ],
      "payable": false,
      "stateMutability": "view",
      "type": "function"
    },
    {
      "constant": true,
      "inputs": [],
      "name": "postCount1",
      "outputs": [
        {
          "name": "",
          "type": "uint256"
        }
      ],
      "payable": false,
      "stateMutability": "view",
      "type": "function"
    },
    {
      "constant": true,
      "inputs": [],
      "name": "check",
      "outputs": [
        {
          "name": "",
          "type": "bool"
        }
      ],
      "payable": false,
      "stateMutability": "view",
      "type": "function"
    },
    {
      "constant": true,
      "inputs": [
        {
          "name": "",
          "type": "address"
        }
      ],
      "name": "students",
      "outputs": [
        {
          "name": "",
          "type": "bool"
        }
      ],
      "payable": false,
      "stateMutability": "view",
      "type": "function"
    },
    {
      "inputs": [],
      "payable": false,
      "stateMutability": "nonpayable",
      "type": "constructor"
    },
    {
      "anonymous": false,
      "inputs": [
        {
          "indexed": false,
          "name": "id",
          "type": "uint256"
        },
        {
          "indexed": false,
          "name": "content",
          "type": "string"
        },
        {
          "indexed": false,
          "name": "choice_1",
          "type": "string"
        },
        {
          "indexed": false,
          "name": "choice_2",
          "type": "string"
        },
        {
          "indexed": false,
          "name": "choice_3",
          "type": "string"
        },
        {
          "indexed": false,
          "name": "choice_4",
          "type": "string"
        },
        {
          "indexed": false,
          "name": "choice_5",
          "type": "string"
        },
        {
          "indexed": false,
          "name": "sender",
          "type": "address"
        },
        {
          "indexed": false,
          "name": "checks",
          "type": "bool"
        }
      ],
      "name": "PostCreated",
      "type": "event"
    },
    {
      "anonymous": false,
      "inputs": [
        {
          "indexed": false,
          "name": "id1",
          "type": "uint256"
        },
        {
          "indexed": false,
          "name": "choice_6",
          "type": "string"
        },
        {
          "indexed": false,
          "name": "choice_7",
          "type": "string"
        },
        {
          "indexed": false,
          "name": "choice_8",
          "type": "string"
        },
        {
          "indexed": false,
          "name": "choice_9",
          "type": "string"
        },
        {
          "indexed": false,
          "name": "choice_10",
          "type": "string"
        },
        {
          "indexed": false,
          "name": "sender",
          "type": "address"
        }
      ],
      "name": "ExtraCreated",
      "type": "event"
    },
    {
      "constant": false,
      "inputs": [
        {
          "name": "_content",
          "type": "string"
        },
        {
          "name": "choice_1",
          "type": "string"
        },
        {
          "name": "choice_2",
          "type": "string"
        },
        {
          "name": "choice_3",
          "type": "string"
        },
        {
          "name": "choice_4",
          "type": "string"
        },
        {
          "name": "choice_5",
          "type": "string"
        },
        {
          "name": "choice_6",
          "type": "string"
        },
        {
          "name": "choice_7",
          "type": "string"
        },
        {
          "name": "choice_8",
          "type": "string"
        },
        {
          "name": "choice_9",
          "type": "string"
        },
        {
          "name": "choice_10",
          "type": "string"
        }
      ],
      "name": "createPost",
      "outputs": [],
      "payable": false,
      "stateMutability": "nonpayable",
      "type": "function"
    }
  ],
  "bytecode": "0x608060405260006002556000600d60006101000a81548160ff0219169083151502179055503480156200003157600080fd5b50606060405190810160405280602381526020017f444241545520556e697665727369747920466565646261636b204d6e6167656d81526020017f656e74000000000000000000000000000000000000000000000000000000000081525060019080519060200190620000a6929190620000ad565b506200015c565b828054600181600116156101000203166002900490600052602060002090601f016020900481019282601f10620000f057805160ff191683800117855562000121565b8280016001018555821562000121579182015b828111156200012057825182559160200191906001019062000103565b5b50905062000130919062000134565b5090565b6200015991905b80821115620001555760008160009055506001016200013b565b5090565b90565b6121b1806200016c6000396000f3fe60806040526004361061008e576000357c0100000000000000000000000000000000000000000000000000000000900463ffffffff16806306fdde03146100935780630b1e7f83146101235780635468bc2f146104385780638a4d5a67146106d65780638cee63c414610766578063919840ad14610791578063a6c807a9146107c0578063e8c052de14610829575b600080fd5b34801561009f57600080fd5b506100a8610ed8565b6040518080602001828103825283818151815260200191508051906020019080838360005b838110156100e85780820151818401526020810190506100cd565b50505050905090810190601f1680156101155780820380516001836020036101000a031916815260200191505b509250505060405180910390f35b34801561012f57600080fd5b5061015c6004803603602081101561014657600080fd5b8101908080359060200190929190505050610f76565b604051808a81526020018060200180602001806020018060200180602001806020018973ffffffffffffffffffffffffffffffffffffffff1673ffffffffffffffffffffffffffffffffffffffff1681526020018815151515815260200187810387528f818151815260200191508051906020019080838360005b838110156101f25780820151818401526020810190506101d7565b50505050905090810190601f16801561021f5780820380516001836020036101000a031916815260200191505b5087810386528e818151815260200191508051906020019080838360005b8381101561025857808201518184015260208101905061023d565b50505050905090810190601f1680156102855780820380516001836020036101000a031916815260200191505b5087810385528d818151815260200191508051906020019080838360005b838110156102be5780820151818401526020810190506102a3565b50505050905090810190601f1680156102eb5780820380516001836020036101000a031916815260200191505b5087810384528c818151815260200191508051906020019080838360005b83811015610324578082015181840152602081019050610309565b50505050905090810190601f1680156103515780820380516001836020036101000a031916815260200191505b5087810383528b818151815260200191508051906020019080838360005b8381101561038a57808201518184015260208101905061036f565b50505050905090810190601f1680156103b75780820380516001836020036101000a031916815260200191505b5087810382528a818151815260200191508051906020019080838360005b838110156103f05780820151818401526020810190506103d5565b50505050905090810190601f16801561041d5780820380516001836020036101000a031916815260200191505b509f5050505050505050505050505050505060405180910390f35b34801561044457600080fd5b506104716004803603602081101561045b57600080fd5b8101908080359060200190929190505050611381565b6040518088815260200180602001806020018060200180602001806020018773ffffffffffffffffffffffffffffffffffffffff1673ffffffffffffffffffffffffffffffffffffffff16815260200186810386528c818151815260200191508051906020019080838360005b838110156104f95780820151818401526020810190506104de565b50505050905090810190601f1680156105265780820380516001836020036101000a031916815260200191505b5086810385528b818151815260200191508051906020019080838360005b8381101561055f578082015181840152602081019050610544565b50505050905090810190601f16801561058c5780820380516001836020036101000a031916815260200191505b5086810384528a818151815260200191508051906020019080838360005b838110156105c55780820151818401526020810190506105aa565b50505050905090810190601f1680156105f25780820380516001836020036101000a031916815260200191505b50868103835289818151815260200191508051906020019080838360005b8381101561062b578082015181840152602081019050610610565b50505050905090810190601f1680156106585780820380516001836020036101000a031916815260200191505b50868103825288818151815260200191508051906020019080838360005b83811015610691578082015181840152602081019050610676565b50505050905090810190601f1680156106be5780820380516001836020036101000a031916815260200191505b509c5050505050505050505050505060405180910390f35b3480156106e257600080fd5b506106eb6116db565b6040518080602001828103825283818151815260200191508051906020019080838360005b8381101561072b578082015181840152602081019050610710565b50505050905090810190601f1680156107585780820380516001836020036101000a031916815260200191505b509250505060405180910390f35b34801561077257600080fd5b5061077b611779565b6040518082815260200191505060405180910390f35b34801561079d57600080fd5b506107a661177f565b604051808215151515815260200191505060405180910390f35b3480156107cc57600080fd5b5061080f600480360360208110156107e357600080fd5b81019080803573ffffffffffffffffffffffffffffffffffffffff169060200190929190505050611792565b604051808215151515815260200191505060405180910390f35b34801561083557600080fd5b50610ed6600480360361016081101561084d57600080fd5b810190808035906020019064010000000081111561086a57600080fd5b82018360208201111561087c57600080fd5b8035906020019184600183028401116401000000008311171561089e57600080fd5b91908080601f016020809104026020016040519081016040528093929190818152602001838380828437600081840152601f19601f8201169050808301925050505050505091929192908035906020019064010000000081111561090157600080fd5b82018360208201111561091357600080fd5b8035906020019184600183028401116401000000008311171561093557600080fd5b91908080601f016020809104026020016040519081016040528093929190818152602001838380828437600081840152601f19601f8201169050808301925050505050505091929192908035906020019064010000000081111561099857600080fd5b8201836020820111156109aa57600080fd5b803590602001918460018302840111640100000000831117156109cc57600080fd5b91908080601f016020809104026020016040519081016040528093929190818152602001838380828437600081840152601f19601f82011690508083019250505050505050919291929080359060200190640100000000811115610a2f57600080fd5b820183602082011115610a4157600080fd5b80359060200191846001830284011164010000000083111715610a6357600080fd5b91908080601f016020809104026020016040519081016040528093929190818152602001838380828437600081840152601f19601f82011690508083019250505050505050919291929080359060200190640100000000811115610ac657600080fd5b820183602082011115610ad857600080fd5b80359060200191846001830284011164010000000083111715610afa57600080fd5b91908080601f016020809104026020016040519081016040528093929190818152602001838380828437600081840152601f19601f82011690508083019250505050505050919291929080359060200190640100000000811115610b5d57600080fd5b820183602082011115610b6f57600080fd5b80359060200191846001830284011164010000000083111715610b9157600080fd5b91908080601f016020809104026020016040519081016040528093929190818152602001838380828437600081840152601f19601f82011690508083019250505050505050919291929080359060200190640100000000811115610bf457600080fd5b820183602082011115610c0657600080fd5b80359060200191846001830284011164010000000083111715610c2857600080fd5b91908080601f016020809104026020016040519081016040528093929190818152602001838380828437600081840152601f19601f82011690508083019250505050505050919291929080359060200190640100000000811115610c8b57600080fd5b820183602082011115610c9d57600080fd5b80359060200191846001830284011164010000000083111715610cbf57600080fd5b91908080601f016020809104026020016040519081016040528093929190818152602001838380828437600081840152601f19601f82011690508083019250505050505050919291929080359060200190640100000000811115610d2257600080fd5b820183602082011115610d3457600080fd5b80359060200191846001830284011164010000000083111715610d5657600080fd5b91908080601f016020809104026020016040519081016040528093929190818152602001838380828437600081840152601f19601f82011690508083019250505050505050919291929080359060200190640100000000811115610db957600080fd5b820183602082011115610dcb57600080fd5b80359060200191846001830284011164010000000083111715610ded57600080fd5b91908080601f016020809104026020016040519081016040528093929190818152602001838380828437600081840152601f19601f82011690508083019250505050505050919291929080359060200190640100000000811115610e5057600080fd5b820183602082011115610e6257600080fd5b80359060200191846001830284011164010000000083111715610e8457600080fd5b91908080601f016020809104026020016040519081016040528093929190818152602001838380828437600081840152601f19601f8201169050808301925050505050505091929192905050506117b2565b005b60018054600181600116156101000203166002900480601f016020809104026020016040519081016040528092919081815260200182805460018160011615610100020316600290048015610f6e5780601f10610f4357610100808354040283529160200191610f6e565b820191906000526020600020905b815481529060010190602001808311610f5157829003601f168201915b505050505081565b600e602052806000526040600020600091509050806000015490806001018054600181600116156101000203166002900480601f0160208091040260200160405190810160405280929190818152602001828054600181600116156101000203166002900480156110285780601f10610ffd57610100808354040283529160200191611028565b820191906000526020600020905b81548152906001019060200180831161100b57829003601f168201915b505050505090806002018054600181600116156101000203166002900480601f0160208091040260200160405190810160405280929190818152602001828054600181600116156101000203166002900480156110c65780601f1061109b576101008083540402835291602001916110c6565b820191906000526020600020905b8154815290600101906020018083116110a957829003601f168201915b505050505090806003018054600181600116156101000203166002900480601f0160208091040260200160405190810160405280929190818152602001828054600181600116156101000203166002900480156111645780601f1061113957610100808354040283529160200191611164565b820191906000526020600020905b81548152906001019060200180831161114757829003601f168201915b505050505090806004018054600181600116156101000203166002900480601f0160208091040260200160405190810160405280929190818152602001828054600181600116156101000203166002900480156112025780601f106111d757610100808354040283529160200191611202565b820191906000526020600020905b8154815290600101906020018083116111e557829003601f168201915b505050505090806005018054600181600116156101000203166002900480601f0160208091040260200160405190810160405280929190818152602001828054600181600116156101000203166002900480156112a05780601f10611275576101008083540402835291602001916112a0565b820191906000526020600020905b81548152906001019060200180831161128357829003601f168201915b505050505090806006018054600181600116156101000203166002900480601f01602080910402602001604051908101604052809291908181526020018280546001816001161561010002031660029004801561133e5780601f106113135761010080835404028352916020019161133e565b820191906000526020600020905b81548152906001019060200180831161132157829003601f168201915b5050505050908060070160009054906101000a900473ffffffffffffffffffffffffffffffffffffffff16908060070160149054906101000a900460ff16905089565b600f602052806000526040600020600091509050806000015490806001018054600181600116156101000203166002900480601f0160208091040260200160405190810160405280929190818152602001828054600181600116156101000203166002900480156114335780601f1061140857610100808354040283529160200191611433565b820191906000526020600020905b81548152906001019060200180831161141657829003601f168201915b505050505090806002018054600181600116156101000203166002900480601f0160208091040260200160405190810160405280929190818152602001828054600181600116156101000203166002900480156114d15780601f106114a6576101008083540402835291602001916114d1565b820191906000526020600020905b8154815290600101906020018083116114b457829003601f168201915b505050505090806003018054600181600116156101000203166002900480601f01602080910402602001604051908101604052809291908181526020018280546001816001161561010002031660029004801561156f5780601f106115445761010080835404028352916020019161156f565b820191906000526020600020905b81548152906001019060200180831161155257829003601f168201915b505050505090806004018054600181600116156101000203166002900480601f01602080910402602001604051908101604052809291908181526020018280546001816001161561010002031660029004801561160d5780601f106115e25761010080835404028352916020019161160d565b820191906000526020600020905b8154815290600101906020018083116115f057829003601f168201915b505050505090806005018054600181600116156101000203166002900480601f0160208091040260200160405190810160405280929190818152602001828054600181600116156101000203166002900480156116ab5780601f10611680576101008083540402835291602001916116ab565b820191906000526020600020905b81548152906001019060200180831161168e57829003601f168201915b5050505050908060060160009054906101000a900473ffffffffffffffffffffffffffffffffffffffff16905087565b60008054600181600116156101000203166002900480601f0160208091040260200160405190810160405280929190818152602001828054600181600116156101000203166002900480156117715780601f1061174657610100808354040283529160200191611771565b820191906000526020600020905b81548152906001019060200180831161175457829003601f168201915b505050505081565b60025481565b600d60009054906101000a900460ff1681565b60106020528060005260406000206000915054906101000a900460ff1681565b60008b511115156117c257600080fd5b6002600081548092919060010191905055506001600d60006101000a81548160ff0219169083151502179055506101206040519081016040528060025481526020018c81526020018b81526020018a81526020018981526020018881526020018781526020013373ffffffffffffffffffffffffffffffffffffffff168152602001600d60009054906101000a900460ff161515815250600e600060025481526020019081526020016000206000820151816000015560208201518160010190805190602001906118949291906120e0565b5060408201518160020190805190602001906118b19291906120e0565b5060608201518160030190805190602001906118ce9291906120e0565b5060808201518160040190805190602001906118eb9291906120e0565b5060a08201518160050190805190602001906119089291906120e0565b5060c08201518160060190805190602001906119259291906120e0565b5060e08201518160070160006101000a81548173ffffffffffffffffffffffffffffffffffffffff021916908373ffffffffffffffffffffffffffffffffffffffff1602179055506101008201518160070160146101000a81548160ff0219169083151502179055509050507f8a7f23ad93e16753c798124fad42afd0e6211a1c52827756031cf6a7c40364c56002548c8c8c8c8c8c33600d60009054906101000a900460ff16604051808a81526020018060200180602001806020018060200180602001806020018973ffffffffffffffffffffffffffffffffffffffff1673ffffffffffffffffffffffffffffffffffffffff1681526020018815151515815260200187810387528f818151815260200191508051906020019080838360005b83811015611a62578082015181840152602081019050611a47565b50505050905090810190601f168015611a8f5780820380516001836020036101000a031916815260200191505b5087810386528e818151815260200191508051906020019080838360005b83811015611ac8578082015181840152602081019050611aad565b50505050905090810190601f168015611af55780820380516001836020036101000a031916815260200191505b5087810385528d818151815260200191508051906020019080838360005b83811015611b2e578082015181840152602081019050611b13565b50505050905090810190601f168015611b5b5780820380516001836020036101000a031916815260200191505b5087810384528c818151815260200191508051906020019080838360005b83811015611b94578082015181840152602081019050611b79565b50505050905090810190601f168015611bc15780820380516001836020036101000a031916815260200191505b5087810383528b818151815260200191508051906020019080838360005b83811015611bfa578082015181840152602081019050611bdf565b50505050905090810190601f168015611c275780820380516001836020036101000a031916815260200191505b5087810382528a818151815260200191508051906020019080838360005b83811015611c60578082015181840152602081019050611c45565b50505050905090810190601f168015611c8d5780820380516001836020036101000a031916815260200191505b509f5050505050505050505050505050505060405180910390a160e06040519081016040528060025481526020018681526020018581526020018481526020018381526020018281526020013373ffffffffffffffffffffffffffffffffffffffff16815250600f60006002548152602001908152602001600020600082015181600001556020820151816001019080519060200190611d2e9291906120e0565b506040820151816002019080519060200190611d4b9291906120e0565b506060820151816003019080519060200190611d689291906120e0565b506080820151816004019080519060200190611d859291906120e0565b5060a0820151816005019080519060200190611da29291906120e0565b5060c08201518160060160006101000a81548173ffffffffffffffffffffffffffffffffffffffff021916908373ffffffffffffffffffffffffffffffffffffffff1602179055509050507f7f38f2d6966ccd7fdb810bf05f092745aafdf90544511e47c3f32f9e471bd08c6002548686868686336040518088815260200180602001806020018060200180602001806020018773ffffffffffffffffffffffffffffffffffffffff1673ffffffffffffffffffffffffffffffffffffffff16815260200186810386528c818151815260200191508051906020019080838360005b83811015611e9f578082015181840152602081019050611e84565b50505050905090810190601f168015611ecc5780820380516001836020036101000a031916815260200191505b5086810385528b818151815260200191508051906020019080838360005b83811015611f05578082015181840152602081019050611eea565b50505050905090810190601f168015611f325780820380516001836020036101000a031916815260200191505b5086810384528a818151815260200191508051906020019080838360005b83811015611f6b578082015181840152602081019050611f50565b50505050905090810190601f168015611f985780820380516001836020036101000a031916815260200191505b50868103835289818151815260200191508051906020019080838360005b83811015611fd1578082015181840152602081019050611fb6565b50505050905090810190601f168015611ffe5780820380516001836020036101000a031916815260200191505b50868103825288818151815260200191508051906020019080838360005b8381101561203757808201518184015260208101905061201c565b50505050905090810190601f1680156120645780820380516001836020036101000a031916815260200191505b509c5050505050505050505050505060405180910390a16001601060003373ffffffffffffffffffffffffffffffffffffffff1673ffffffffffffffffffffffffffffffffffffffff16815260200190815260200160002060006101000a81548160ff0219169083151502179055505050505050505050505050565b828054600181600116156101000203166002900490600052602060002090601f016020900481019282601f1061212157805160ff191683800117855561214f565b8280016001018555821561214f579182015b8281111561214e578251825591602001919060010190612133565b5b50905061215c9190612160565b5090565b61218291905b8082111561217e576000816000905550600101612166565b5090565b9056fea165627a7a723058201be1d2bc77baf16abe93dfc926a7663323f836539324657a94a4e8b77a210f4b0029",
  "source": "pragma solidity >=0.4.21 <0.6.0;\r\n\r\ncontract SocialNetwork {\r\n    string public content;\r\n    string public name;\r\n    uint public postCount1 = 0;    \r\n    \r\n    string choice_1;\r\n    string choice_2;    \r\n    string choice_3;\r\n    string choice_4;\r\n    string choice_5;\r\n    string choice_6;\r\n    string choice_7;\r\n    string choice_8;\r\n    string choice_9;\r\n    string choice_10;        \r\n    bool public check = false;\r\n    mapping(uint => Post) public posts;\r\n    mapping(uint => Extra) public extras;\r\n    mapping(address => bool) public students;    \r\n    address teacher;\r\n    \r\n    \r\n    \r\n    struct Post {\r\n        uint id;\r\n        string content;                \r\n        string  choice_1;\r\n        string  choice_2;\r\n        string  choice_3;\r\n        string choice_4;\r\n        string choice_5;                \r\n        address teacher;        \r\n        bool checks;    \r\n    }\r\n\r\n    struct Extra{\r\n    uint id1;\r\n    string choice_6;\r\n    string choice_7;\r\n    string choice_8;\r\n    string choice_9;\r\n    string choice_10;\r\n    address teacher;\r\n    }\r\n                        \r\n    event PostCreated(\r\n        uint id,\r\n        string  content,        \r\n        string  choice_1,\r\n        string  choice_2,\r\n        string  choice_3,\r\n        string choice_4,\r\n        string choice_5,\r\n        address sender,\r\n        bool checks\r\n    );\r\n\r\n    event ExtraCreated(\r\n    uint id1,\r\n    string choice_6,\r\n    string choice_7,\r\n    string choice_8,\r\n    string choice_9,\r\n    string choice_10,\r\n    address sender\r\n    );\r\n   \r\n    constructor() public {\r\n        name = \"DBATU University Feedback Mnagement\";\r\n    }\r\n                                \r\n    function createPost(string memory _content,string memory choice_1,string memory choice_2,string memory choice_3,string memory choice_4,string memory choice_5,string memory choice_6,string memory choice_7,string memory choice_8,string memory choice_9,string memory choice_10 ) public {\r\n        // Require valid content\r\n        require(bytes(_content).length > 0);\r\n        // Increment the post count\r\n        postCount1++;\r\n        // Create the post\r\n        check = true;\r\n        posts[postCount1] = Post(postCount1, _content,choice_1,choice_2,choice_3,choice_4,choice_5,msg.sender,check);\r\n        // Trigger event\r\n        emit PostCreated(postCount1,_content,choice_1,choice_2,choice_3,choice_4,choice_5,msg.sender,check);        \r\n         \r\n         extras[postCount1] = Extra(postCount1,choice_6,choice_7,choice_8,choice_9,choice_10,msg.sender);\r\n         \r\n         emit ExtraCreated(postCount1,choice_6,choice_7,choice_8,choice_9,choice_10,msg.sender);       \r\n\r\n         students[msg.sender] = true;\r\n\r\n    }             \r\n\r\n}",
  "sourcePath": "C:/Users/Shridhar/Documents/ProjectFeedback/src/contracts/SocialNetwork.sol",
  "compiler": {
    "name": "solc",
    "version": "0.5.0+commit.1d4f565a.Emscripten.clang"
  },
  "schemaVersion": "3.0.9",
  "updatedAt": "2020-06-09T13:48:43.647Z",
  "devdoc": {
    "methods": {}
  },
  "userdoc": {
    "methods": {}
  }
}